{
  "contractName": "Scmdapp",
  "abi": [
    {
      "constant": false,
      "inputs": [
        {
          "internalType": "string",
          "name": "handle",
          "type": "string"
        },
        {
          "internalType": "bytes32",
          "name": "city",
          "type": "bytes32"
        },
        {
          "internalType": "bytes32",
          "name": "state",
          "type": "bytes32"
        },
        {
          "internalType": "bytes32",
          "name": "country",
          "type": "bytes32"
        }
      ],
      "name": "registerNewUser",
      "outputs": [
        {
          "internalType": "bool",
          "name": "success",
          "type": "bool"
        }
      ],
      "payable": false,
      "stateMutability": "nonpayable",
      "type": "function"
    },
    {
      "constant": false,
      "inputs": [
        {
          "internalType": "string",
          "name": "imageURL",
          "type": "string"
        },
        {
          "internalType": "bytes32",
          "name": "SHA256notaryHash",
          "type": "bytes32"
        }
      ],
      "name": "addImageToUser",
      "outputs": [
        {
          "internalType": "bool",
          "name": "success",
          "type": "bool"
        }
      ],
      "payable": false,
      "stateMutability": "nonpayable",
      "type": "function"
    },
    {
      "constant": true,
      "inputs": [],
      "name": "getUsers",
      "outputs": [
        {
          "internalType": "address[]",
          "name": "",
          "type": "address[]"
        }
      ],
      "payable": false,
      "stateMutability": "view",
      "type": "function"
    },
    {
      "constant": true,
      "inputs": [
        {
          "internalType": "address",
          "name": "userAddress",
          "type": "address"
        }
      ],
      "name": "getUser",
      "outputs": [
        {
          "internalType": "string",
          "name": "",
          "type": "string"
        },
        {
          "internalType": "bytes32",
          "name": "",
          "type": "bytes32"
        },
        {
          "internalType": "bytes32",
          "name": "",
          "type": "bytes32"
        },
        {
          "internalType": "bytes32",
          "name": "",
          "type": "bytes32"
        },
        {
          "internalType": "bytes32[]",
          "name": "",
          "type": "bytes32[]"
        }
      ],
      "payable": false,
      "stateMutability": "view",
      "type": "function"
    },
    {
      "constant": true,
      "inputs": [],
      "name": "getAllImages",
      "outputs": [
        {
          "internalType": "bytes32[]",
          "name": "",
          "type": "bytes32[]"
        }
      ],
      "payable": false,
      "stateMutability": "view",
      "type": "function"
    },
    {
      "constant": true,
      "inputs": [
        {
          "internalType": "address",
          "name": "userAddress",
          "type": "address"
        }
      ],
      "name": "getUserImages",
      "outputs": [
        {
          "internalType": "bytes32[]",
          "name": "",
          "type": "bytes32[]"
        }
      ],
      "payable": false,
      "stateMutability": "view",
      "type": "function"
    },
    {
      "constant": true,
      "inputs": [
        {
          "internalType": "bytes32",
          "name": "SHA256notaryHash",
          "type": "bytes32"
        }
      ],
      "name": "getImage",
      "outputs": [
        {
          "internalType": "string",
          "name": "",
          "type": "string"
        },
        {
          "internalType": "uint256",
          "name": "",
          "type": "uint256"
        }
      ],
      "payable": false,
      "stateMutability": "view",
      "type": "function"
    }
  ],
  "bytecode": "0x608060405234801561001057600080fd5b50610eb1806100206000396000f3fe608060405234801561001057600080fd5b506004361061007c5760003560e01c80636f77926b1161005b5780636f77926b1461027f5780637b7284fc146103995780637f2a6a5c146103f8578063eb6bbd78146104d55761007c565b8062ce8e3e14610081578063124b1789146100e05780636ced1ae9146101d1575b600080fd5b61008961056e565b6040518080602001828103825283818151815260200191508051906020019060200280838360005b838110156100cc5780820151818401526020810190506100b1565b505050509050019250505060405180910390f35b6101b7600480360360808110156100f657600080fd5b810190808035906020019064010000000081111561011357600080fd5b82018360208201111561012557600080fd5b8035906020019184600183028401116401000000008311171561014757600080fd5b91908080601f016020809104026020016040519081016040528093929190818152602001838380828437600081840152601f19601f8201169050808301925050505050505091929192908035906020019092919080359060200190929190803590602001909291905050506105fc565b604051808215151515815260200191505060405180910390f35b6101fd600480360360208110156101e757600080fd5b8101908080359060200190929190505050610819565b6040518080602001838152602001828103825284818151815260200191508051906020019080838360005b83811015610243578082015181840152602081019050610228565b50505050905090810190601f1680156102705780820380516001836020036101000a031916815260200191505b50935050505060405180910390f35b6102c16004803603602081101561029557600080fd5b81019080803573ffffffffffffffffffffffffffffffffffffffff1690602001909291905050506108ef565b604051808060200186815260200185815260200184815260200180602001838103835288818151815260200191508051906020019080838360005b838110156103175780820151818401526020810190506102fc565b50505050905090810190601f1680156103445780820380516001836020036101000a031916815260200191505b50838103825284818151815260200191508051906020019060200280838360005b83811015610380578082015181840152602081019050610365565b5050505090500197505050505050505060405180910390f35b6103a1610b46565b6040518080602001828103825283818151815260200191508051906020019060200280838360005b838110156103e45780820151818401526020810190506103c9565b505050509050019250505060405180910390f35b6104bb6004803603604081101561040e57600080fd5b810190808035906020019064010000000081111561042b57600080fd5b82018360208201111561043d57600080fd5b8035906020019184600183028401116401000000008311171561045f57600080fd5b91908080601f016020809104026020016040519081016040528093929190818152602001838380828437600081840152601f19601f82011690508083019250505050505050919291929080359060200190929190505050610b9e565b604051808215151515815260200191505060405180910390f35b610517600480360360208110156104eb57600080fd5b81019080803573ffffffffffffffffffffffffffffffffffffffff169060200190929190505050610d3d565b6040518080602001828103825283818151815260200191508051906020019060200280838360005b8381101561055a57808201518184015260208101905061053f565b505050509050019250505060405180910390f35b606060048054806020026020016040519081016040528092919081815260200182805480156105f257602002820191906000526020600020905b8160009054906101000a900473ffffffffffffffffffffffffffffffffffffffff1673ffffffffffffffffffffffffffffffffffffffff16815260200190600101908083116105a8575b5050505050905090565b6000803390506000600360003373ffffffffffffffffffffffffffffffffffffffff1673ffffffffffffffffffffffffffffffffffffffff16815260200190815260200160002060000180546001816001161561010002031660029004905014801561066a57506000865114155b1561080b5785600360008373ffffffffffffffffffffffffffffffffffffffff1673ffffffffffffffffffffffffffffffffffffffff16815260200190815260200160002060000190805190602001906106c5929190610dd7565b5084600360008373ffffffffffffffffffffffffffffffffffffffff1673ffffffffffffffffffffffffffffffffffffffff1681526020019081526020016000206001018190555083600360008373ffffffffffffffffffffffffffffffffffffffff1673ffffffffffffffffffffffffffffffffffffffff1681526020019081526020016000206002018190555082600360008373ffffffffffffffffffffffffffffffffffffffff1673ffffffffffffffffffffffffffffffffffffffff1681526020019081526020016000206003018190555060048190806001815401808255809150509060018203906000526020600020016000909192909190916101000a81548173ffffffffffffffffffffffffffffffffffffffff021916908373ffffffffffffffffffffffffffffffffffffffff160217905550506001915050610811565b60009150505b949350505050565b60606000600160008481526020019081526020016000206000016001600085815260200190815260200160002060010154818054600181600116156101000203166002900480601f0160208091040260200160405190810160405280929190818152602001828054600181600116156101000203166002900480156108df5780601f106108b4576101008083540402835291602001916108df565b820191906000526020600020905b8154815290600101906020018083116108c257829003601f168201915b5050505050915091509150915091565b606060008060006060600360008773ffffffffffffffffffffffffffffffffffffffff1673ffffffffffffffffffffffffffffffffffffffff168152602001908152602001600020600001600360008873ffffffffffffffffffffffffffffffffffffffff1673ffffffffffffffffffffffffffffffffffffffff16815260200190815260200160002060010154600360008973ffffffffffffffffffffffffffffffffffffffff1673ffffffffffffffffffffffffffffffffffffffff16815260200190815260200160002060020154600360008a73ffffffffffffffffffffffffffffffffffffffff1673ffffffffffffffffffffffffffffffffffffffff16815260200190815260200160002060030154600360008b73ffffffffffffffffffffffffffffffffffffffff1673ffffffffffffffffffffffffffffffffffffffff168152602001908152602001600020600401848054600181600116156101000203166002900480601f016020809104026020016040519081016040528092919081815260200182805460018160011615610100020316600290048015610ada5780601f10610aaf57610100808354040283529160200191610ada565b820191906000526020600020905b815481529060010190602001808311610abd57829003601f168201915b5050505050945080805480602002602001604051908101604052809291908181526020018280548015610b2c57602002820191906000526020600020905b815481526020019060010190808311610b18575b505050505090509450945094509450945091939590929450565b60606002805480602002602001604051908101604052809291908181526020018280548015610b9457602002820191906000526020600020905b815481526020019060010190808311610b80575b5050505050905090565b6000803390506000600360008373ffffffffffffffffffffffffffffffffffffffff1673ffffffffffffffffffffffffffffffffffffffff16815260200190815260200160002060000180546001816001161561010002031660029004905014610d31576000845114610d27576000600160008581526020019081526020016000206000018054600181600116156101000203166002900490501415610c6b5760028390806001815401808255809150509060018203906000526020600020016000909192909190915055505b83600160008581526020019081526020016000206000019080519060200190610c95929190610dd7565b50426001600085815260200190815260200160002060010181905550600360008273ffffffffffffffffffffffffffffffffffffffff1673ffffffffffffffffffffffffffffffffffffffff1681526020019081526020016000206004018390806001815401808255809150509060018203906000526020600020016000909192909190915055506001915050610d37565b6000915050610d37565b60009150505b92915050565b6060600360008373ffffffffffffffffffffffffffffffffffffffff1673ffffffffffffffffffffffffffffffffffffffff168152602001908152602001600020600401805480602002602001604051908101604052809291908181526020018280548015610dcb57602002820191906000526020600020905b815481526020019060010190808311610db7575b50505050509050919050565b828054600181600116156101000203166002900490600052602060002090601f016020900481019282601f10610e1857805160ff1916838001178555610e46565b82800160010185558215610e46579182015b82811115610e45578251825591602001919060010190610e2a565b5b509050610e539190610e57565b5090565b610e7991905b80821115610e75576000816000905550600101610e5d565b5090565b9056fea265627a7a7231582042f32a6738759fdd8ac53ac245c279b771f5fbad34ac99c314483d4a0a6f89bc64736f6c63430005110032",
  "source": "pragma solidity ^0.5.16;\r\n\r\n\r\ncontract Scmdapp {\r\n    \r\n    address ScmdappAdmin;\r\n\r\n    // here we can look up the images by their 256hashes\r\n    mapping ( bytes32 => notarizedImage) notarizedImages;\r\n    \r\n    // this is similar to a whitepages of all of the images, loading by their 256hash\r\n    bytes32[] imagesByNotaryHash;\r\n\r\n    // here we can lookup users by their eth address\r\n    mapping ( address => User ) Users;\r\n\r\n    // similar to the above bytes32[]. We have a list of all users\r\n    address[] usersByAddress; \r\n\r\n    struct notarizedImage {\r\n        string imageURL;\r\n        uint timeStamp;\r\n    }\r\n\r\n    struct User {\r\n        string handle;\r\n        bytes32 city;\r\n        bytes32 state;\r\n        bytes32 country;\r\n        bytes32[] myImages;\r\n    }\r\n\r\n    function registerNewUser(string memory handle, bytes32 city, bytes32 state, bytes32  country) public returns (bool success) {\r\n\r\n        address thisNewAddress = msg.sender;\r\n\r\n        if( bytes(Users[msg.sender].handle).length == 0 && bytes(handle).length != 0 ) {\r\n            Users[thisNewAddress].handle = handle;\r\n            Users[thisNewAddress].city = city;\r\n            Users[thisNewAddress].state = state;\r\n            Users[thisNewAddress].country = country;\r\n\r\n            // Now we have all of the criteria required for a new user\r\n            // so we push the new address to our master list of addresses\r\n            usersByAddress.push(thisNewAddress);\r\n\r\n            return true;\r\n        } else {\r\n            return false;\r\n        }\r\n    }\r\n\r\n    function addImageToUser(string memory imageURL, bytes32 SHA256notaryHash) public returns (bool success) {\r\n\r\n        address thisNewAddress = msg.sender;\r\n\r\n        // Making sure they have created an account first\r\n        if(bytes(Users[thisNewAddress].handle).length != 0) {\r\n            \r\n            // making sure that something was entered\r\n            if(bytes(imageURL).length != 0) {\r\n                \r\n                // making sure the url doesn't already exist\r\n                if(bytes(notarizedImages[SHA256notaryHash].imageURL).length == 0) {\r\n\r\n                    // pushing the new image url to our list of all images\r\n                    imagesByNotaryHash.push(SHA256notaryHash);\r\n                }\r\n\r\n                notarizedImages[SHA256notaryHash].imageURL = imageURL;\r\n                notarizedImages[SHA256notaryHash].timeStamp = block.timestamp;\r\n\r\n                // adding the image hash to the users list of images\r\n                Users[thisNewAddress].myImages.push(SHA256notaryHash);\r\n\r\n                return true;\r\n\r\n            } else {\r\n                \r\n                // couldn't store the image\r\n                return false;\r\n            }\r\n        } else {\r\n            // User didn't have an account\r\n            return false;\r\n        }\r\n    }\r\n\r\n    function getUsers() public view returns ( address[] memory ) {\r\n        return usersByAddress;\r\n    }\r\n\r\n    function getUser(address userAddress) public view returns (string memory, bytes32, bytes32, bytes32, bytes32[] memory) {\r\n            \r\n        return (\r\n            Users[userAddress].handle, \r\n            Users[userAddress].city, \r\n            Users[userAddress].state, \r\n            Users[userAddress].country, \r\n            Users[userAddress].myImages\r\n        );\r\n    }\r\n\r\n    function getAllImages() public view returns (bytes32[] memory) {\r\n        return imagesByNotaryHash;\r\n    }\r\n\r\n    function getUserImages(address userAddress) public view returns (bytes32[] memory) {\r\n        return Users[userAddress].myImages;\r\n    }\r\n\r\n    function getImage(bytes32 SHA256notaryHash) public view returns (string memory, uint) {\r\n        return (notarizedImages[SHA256notaryHash].imageURL, notarizedImages[SHA256notaryHash].timeStamp);\r\n    }\r\n\r\n\r\n}\r\n\r\n",
  "sourcePath": "/Users/anon/Documents/VSCode/social_media_dapp/contracts/Scmdapp.sol",
  "compiler": {
    "name": "solc",
    "version": "0.5.17+commit.d19bba13.Emscripten.clang"
  },
  "schemaVersion": "3.4.3",
  "updatedAt": "2021-12-17T07:25:33.139Z",
  "networkType": "ethereum",
  "devdoc": {
    "methods": {}
  },
  "userdoc": {
    "methods": {}
  }
}