{
  "contractName": "Scmdapp",
  "abi": [
    {
      "constant": false,
      "inputs": [
        {
          "name": "handle",
          "type": "string"
        },
        {
          "name": "city",
          "type": "bytes32"
        },
        {
          "name": "state",
          "type": "bytes32"
        },
        {
          "name": "country",
          "type": "bytes32"
        }
      ],
      "name": "registerNewUser",
      "outputs": [
        {
          "name": "success",
          "type": "bool"
        }
      ],
      "payable": false,
      "stateMutability": "nonpayable",
      "type": "function"
    },
    {
      "constant": false,
      "inputs": [
        {
          "name": "imageURL",
          "type": "string"
        },
        {
          "name": "SHA256notaryHash",
          "type": "bytes32"
        }
      ],
      "name": "addImageToUser",
      "outputs": [
        {
          "name": "success",
          "type": "bool"
        }
      ],
      "payable": false,
      "stateMutability": "nonpayable",
      "type": "function"
    },
    {
      "constant": true,
      "inputs": [],
      "name": "getUsers",
      "outputs": [
        {
          "name": "",
          "type": "address[]"
        }
      ],
      "payable": false,
      "stateMutability": "view",
      "type": "function"
    },
    {
      "constant": true,
      "inputs": [
        {
          "name": "userAddress",
          "type": "address"
        }
      ],
      "name": "getUser",
      "outputs": [
        {
          "name": "",
          "type": "string"
        },
        {
          "name": "",
          "type": "bytes32"
        },
        {
          "name": "",
          "type": "bytes32"
        },
        {
          "name": "",
          "type": "bytes32"
        },
        {
          "name": "",
          "type": "bytes32[]"
        }
      ],
      "payable": false,
      "stateMutability": "view",
      "type": "function"
    },
    {
      "constant": true,
      "inputs": [],
      "name": "getAllImages",
      "outputs": [
        {
          "name": "",
          "type": "bytes32[]"
        }
      ],
      "payable": false,
      "stateMutability": "view",
      "type": "function"
    },
    {
      "constant": true,
      "inputs": [
        {
          "name": "userAddress",
          "type": "address"
        }
      ],
      "name": "getUserImages",
      "outputs": [
        {
          "name": "",
          "type": "bytes32[]"
        }
      ],
      "payable": false,
      "stateMutability": "view",
      "type": "function"
    },
    {
      "constant": true,
      "inputs": [
        {
          "name": "SHA256notaryHash",
          "type": "bytes32"
        }
      ],
      "name": "getImage",
      "outputs": [
        {
          "name": "",
          "type": "string"
        },
        {
          "name": "",
          "type": "uint256"
        }
      ],
      "payable": false,
      "stateMutability": "view",
      "type": "function"
    }
  ],
  "bytecode": "0x608060405234801561001057600080fd5b50610e9a806100206000396000f300608060405260043610610082576000357c0100000000000000000000000000000000000000000000000000000000900463ffffffff168062ce8e3e14610087578063124b1789146100f35780636ced1ae91461019e5780636f77926b1461024f5780637b7284fc146103805780637f2a6a5c146103ec578063eb6bbd781461047b575b600080fd5b34801561009357600080fd5b5061009c610513565b6040518080602001828103825283818151815260200191508051906020019060200280838360005b838110156100df5780820151818401526020810190506100c4565b505050509050019250505060405180910390f35b3480156100ff57600080fd5b50610184600480360381019080803590602001908201803590602001908080601f01602080910402602001604051908101604052809392919081815260200183838082843782019150505050505091929192908035600019169060200190929190803560001916906020019092919080356000191690602001909291905050506105a1565b604051808215151515815260200191505060405180910390f35b3480156101aa57600080fd5b506101cd60048036038101908080356000191690602001909291905050506107c9565b6040518080602001838152602001828103825284818151815260200191508051906020019080838360005b838110156102135780820151818401526020810190506101f8565b50505050905090810190601f1680156102405780820380516001836020036101000a031916815260200191505b50935050505060405180910390f35b34801561025b57600080fd5b50610290600480360381019080803573ffffffffffffffffffffffffffffffffffffffff1690602001909291905050506108af565b604051808060200186600019166000191681526020018560001916600019168152602001846000191660001916815260200180602001838103835288818151815260200191508051906020019080838360005b838110156102fe5780820151818401526020810190506102e3565b50505050905090810190601f16801561032b5780820380516001836020036101000a031916815260200191505b50838103825284818151815260200191508051906020019060200280838360005b8381101561036757808201518184015260208101905061034c565b5050505090500197505050505050505060405180910390f35b34801561038c57600080fd5b50610395610b0a565b6040518080602001828103825283818151815260200191508051906020019060200280838360005b838110156103d85780820151818401526020810190506103bd565b505050509050019250505060405180910390f35b3480156103f857600080fd5b50610461600480360381019080803590602001908201803590602001908080601f01602080910402602001604051908101604052809392919081815260200183838082843782019150505050505091929192908035600019169060200190929190505050610b66565b604051808215151515815260200191505060405180910390f35b34801561048757600080fd5b506104bc600480360381019080803573ffffffffffffffffffffffffffffffffffffffff169060200190929190505050610d2b565b6040518080602001828103825283818151815260200191508051906020019060200280838360005b838110156104ff5780820151818401526020810190506104e4565b505050509050019250505060405180910390f35b6060600480548060200260200160405190810160405280929190818152602001828054801561059757602002820191906000526020600020905b8160009054906101000a900473ffffffffffffffffffffffffffffffffffffffff1673ffffffffffffffffffffffffffffffffffffffff168152602001906001019080831161054d575b5050505050905090565b6000803390506000600360003373ffffffffffffffffffffffffffffffffffffffff1673ffffffffffffffffffffffffffffffffffffffff16815260200190815260200160002060000180546001816001161561010002031660029004905014801561060f57506000865114155b156107bb5785600360008373ffffffffffffffffffffffffffffffffffffffff1673ffffffffffffffffffffffffffffffffffffffff168152602001908152602001600020600001908051906020019061066a929190610dc9565b5084600360008373ffffffffffffffffffffffffffffffffffffffff1673ffffffffffffffffffffffffffffffffffffffff168152602001908152602001600020600101816000191690555083600360008373ffffffffffffffffffffffffffffffffffffffff1673ffffffffffffffffffffffffffffffffffffffff168152602001908152602001600020600201816000191690555082600360008373ffffffffffffffffffffffffffffffffffffffff1673ffffffffffffffffffffffffffffffffffffffff168152602001908152602001600020600301816000191690555060048190806001815401808255809150509060018203906000526020600020016000909192909190916101000a81548173ffffffffffffffffffffffffffffffffffffffff021916908373ffffffffffffffffffffffffffffffffffffffff16021790555050600191506107c0565b600091505b50949350505050565b6060600060016000846000191660001916815260200190815260200160002060000160016000856000191660001916815260200190815260200160002060010154818054600181600116156101000203166002900480601f01602080910402602001604051908101604052809291908181526020018280546001816001161561010002031660029004801561089f5780601f106108745761010080835404028352916020019161089f565b820191906000526020600020905b81548152906001019060200180831161088257829003601f168201915b5050505050915091509150915091565b606060008060006060600360008773ffffffffffffffffffffffffffffffffffffffff1673ffffffffffffffffffffffffffffffffffffffff168152602001908152602001600020600001600360008873ffffffffffffffffffffffffffffffffffffffff1673ffffffffffffffffffffffffffffffffffffffff16815260200190815260200160002060010154600360008973ffffffffffffffffffffffffffffffffffffffff1673ffffffffffffffffffffffffffffffffffffffff16815260200190815260200160002060020154600360008a73ffffffffffffffffffffffffffffffffffffffff1673ffffffffffffffffffffffffffffffffffffffff16815260200190815260200160002060030154600360008b73ffffffffffffffffffffffffffffffffffffffff1673ffffffffffffffffffffffffffffffffffffffff168152602001908152602001600020600401848054600181600116156101000203166002900480601f016020809104026020016040519081016040528092919081815260200182805460018160011615610100020316600290048015610a9a5780601f10610a6f57610100808354040283529160200191610a9a565b820191906000526020600020905b815481529060010190602001808311610a7d57829003601f168201915b5050505050945080805480602002602001604051908101604052809291908181526020018280548015610af057602002820191906000526020600020905b81546000191681526020019060010190808311610ad8575b505050505090509450945094509450945091939590929450565b60606002805480602002602001604051908101604052809291908181526020018280548015610b5c57602002820191906000526020600020905b81546000191681526020019060010190808311610b44575b5050505050905090565b6000803390506000600360008373ffffffffffffffffffffffffffffffffffffffff1673ffffffffffffffffffffffffffffffffffffffff168152602001908152602001600020600001805460018160011615610100020316600290049050141515610d1f5760008451141515610d165760006001600085600019166000191681526020019081526020016000206000018054600181600116156101000203166002900490501415610c455760028390806001815401808255809150509060018203906000526020600020016000909192909190915090600019169055505b836001600085600019166000191681526020019081526020016000206000019080519060200190610c77929190610dc9565b504260016000856000191660001916815260200190815260200160002060010181905550600360008273ffffffffffffffffffffffffffffffffffffffff1673ffffffffffffffffffffffffffffffffffffffff16815260200190815260200160002060040183908060018154018082558091505090600182039060005260206000200160009091929091909150906000191690555060019150610d24565b60009150610d24565b600091505b5092915050565b6060600360008373ffffffffffffffffffffffffffffffffffffffff1673ffffffffffffffffffffffffffffffffffffffff168152602001908152602001600020600401805480602002602001604051908101604052809291908181526020018280548015610dbd57602002820191906000526020600020905b81546000191681526020019060010190808311610da5575b50505050509050919050565b828054600181600116156101000203166002900490600052602060002090601f016020900481019282601f10610e0a57805160ff1916838001178555610e38565b82800160010185558215610e38579182015b82811115610e37578251825591602001919060010190610e1c565b5b509050610e459190610e49565b5090565b610e6b91905b80821115610e67576000816000905550600101610e4f565b5090565b905600a165627a7a7230582060d65a423bad7fccd24b610e5b102e0261e716c5e5bcf3869e15ea327f2189e30029",
  "source": "pragma solidity ^0.4.4;\r\n\r\ncontract Scmdapp {\r\n    \r\n    address ScmdappAdmin;\r\n\r\n    // here we can look up the images by their 256hashes\r\n    mapping ( bytes32 => notarizedImage) notarizedImages;\r\n    \r\n    // this is similar to a whitepages of all of the images, loading by their 256hash\r\n    bytes32[] imagesByNotaryHash;\r\n\r\n    // here we can lookup users by their eth address\r\n    mapping ( address => User ) Users;\r\n\r\n    // similar to the above bytes32[]. We have a list of all users\r\n    address[] usersByAddress; \r\n\r\n    struct notarizedImage {\r\n        string imageURL;\r\n        uint timeStamp;\r\n    }\r\n\r\n    struct User {\r\n        string handle;\r\n        bytes32 city;\r\n        bytes32 state;\r\n        bytes32 country;\r\n        bytes32[] myImages;\r\n    }\r\n\r\n    function registerNewUser(string handle, bytes32 city, bytes32 state, bytes32 country) public returns (bool success) {\r\n\r\n        address thisNewAddress = msg.sender;\r\n\r\n        if( bytes(Users[msg.sender].handle).length == 0 && bytes(handle).length != 0 ) {\r\n            Users[thisNewAddress].handle = handle;\r\n            Users[thisNewAddress].city = city;\r\n            Users[thisNewAddress].state = state;\r\n            Users[thisNewAddress].country = country;\r\n\r\n            // Now we have all of the criteria required for a new user\r\n            // so we push the new address to our master list of addresses\r\n            usersByAddress.push(thisNewAddress);\r\n\r\n            return true;\r\n        } else {\r\n            return false;\r\n        }\r\n    }\r\n\r\n    function addImageToUser(string imageURL, bytes32 SHA256notaryHash) public returns (bool success) {\r\n\r\n        address thisNewAddress = msg.sender;\r\n\r\n        // Making sure they have created an account first\r\n        if(bytes(Users[thisNewAddress].handle).length != 0) {\r\n            \r\n            // making sure that something was entered\r\n            if(bytes(imageURL).length != 0) {\r\n                \r\n                // making sure the url doesn't already exist\r\n                if(bytes(notarizedImages[SHA256notaryHash].imageURL).length == 0) {\r\n\r\n                    // pushing the new image url to our list of all images\r\n                    imagesByNotaryHash.push(SHA256notaryHash);\r\n                }\r\n\r\n                notarizedImages[SHA256notaryHash].imageURL = imageURL;\r\n                notarizedImages[SHA256notaryHash].timeStamp = block.timestamp;\r\n\r\n                // adding the image hash to the users list of images\r\n                Users[thisNewAddress].myImages.push(SHA256notaryHash);\r\n\r\n                return true;\r\n\r\n            } else {\r\n                \r\n                // couldn't store the image\r\n                return false;\r\n            }\r\n        } else {\r\n            // User didn't have an account\r\n            return false;\r\n        }\r\n    }\r\n\r\n    function getUsers() public view returns ( address[] ) {\r\n        return usersByAddress;\r\n    }\r\n\r\n    function getUser(address userAddress) public view returns (string, bytes32, bytes32, bytes32, bytes32[]) {\r\n            \r\n        return (\r\n            Users[userAddress].handle, \r\n            Users[userAddress].city, \r\n            Users[userAddress].state, \r\n            Users[userAddress].country, \r\n            Users[userAddress].myImages\r\n        );\r\n    }\r\n\r\n    function getAllImages() public view returns (bytes32[]) {\r\n        return imagesByNotaryHash;\r\n    }\r\n\r\n    function getUserImages(address userAddress) public view returns (bytes32[]) {\r\n        return Users[userAddress].myImages;\r\n    }\r\n\r\n    function getImage(bytes32 SHA256notaryHash) public view returns (string, uint) {\r\n        return (notarizedImages[SHA256notaryHash].imageURL, notarizedImages[SHA256notaryHash].timeStamp);\r\n    }\r\n\r\n\r\n}\r\n\r\n",
  "sourcePath": "C:\\Users\\zbloss\\Documents\\PRojects\\SocialMedia_DApp\\contracts\\Scmdapp.sol",
  "compiler": {
    "name": "solc",
    "version": "0.4.24+commit.e67f0147.Emscripten.clang"
  },
  "schemaVersion": "2.0.1",
  "updatedAt": "2018-09-25T18:41:15.634Z"
}